:020000040800F2
:1000000000280020F50900086D090008790900089A
:100010007F090008850900088B090008000000001E
:10002000000000000000000000000000910900082E
:100030009D09000800000000A9090008B509000892
:100040003D0A00083D0A00083D0A00083D0A000874
:100050003D0A00083D0A0008C10900083D0A0008E1
:100060003D0A00083D0A00083D0A00083D0A000854
:100070003D0A00083D0A00083D0A00083D0A000844
:100080003D0A00083D0A00083D0A00083D0A000834
:100090003D0A00083D0A00083D0A00083D0A000824
:1000A0003D0A00083D0A00083D0A00083D0A000814
:1000B0003D0A00083D0A0008000000003D0A000853
:1000C0003D0A000800000000000000003D0A000892
:1000D000000000003D0A00083D0A00080000000082
:1000E0003D0A00083D0A00083D0A00080000000023
:1000F0000000000000000000000000000000000000
:0C01000000000000000000005FF808F1A3
:10010C0010B5054C237833B9044B13B10448AFF345
:10011C0000800123237010BD0C00002000000000A3
:10012C00A824000808B5034B1BB103490348AFF3DF
:10013C00008008BD0000000010000020A82400086A
:10014C0080B584B000AF3B1D00221A605A609A60E3
:10015C0002237B600123BB600023FB603B1D19461F
:10016C00054800F0AFFF0346002B01D000F084FBE4
:10017C0000BF1037BD4680BD2C00002080B584B078
:10018C0000AF3B1D00221A605A609A6004237B600A
:10019C000123BB603B1D1946054800F093FF034645
:1001AC00002B01D000F068FB00BF1037BD4680BDAE
:1001BC002C00002080B582B000AF00F03BFC00F0BA
:1001CC003FF800F0BDF800F08BF800F023F9194966
:1001DC00194800F001FB184B1B68642202FB03F268
:1001EC00164BA3FB0213D21A52081344DB0A7B6092
:1001FC007B68642B01D07B6800E063235821184690
:10020C0000F0C2F90B4B1B68642202FB03F20B4B90
:10021C00A3FB0213D21A52081344DB0A3B603B685F
:10022C00642B01D03B6800E063235921184600F091
:10023C00ABF9CCE75C000020280000200101100085
:10024C0080B594B000AF07F128032822002118468E
:10025C0002F01CF907F1140300221A605A609A602C
:10026C00DA601A613B1D00221A605A609A60DA60EB
:10027C000223BB620123BB631023FB6300237B645B
:10028C0007F12803184601F063FB0346002B01D04D
:10029C0000F0F2FA0F237B610023BB610023FB61AA
:1002AC0000233B6200237B6207F1140300211846F4
:1002BC0001F0CEFD0346002B01D000F0DDFA022345
:1002CC007B600023FB603B1D184601F049FF034691
:1002DC00002B01D000F0D0FA00BF5037BD4680BDD6
:1002EC0080B584B000AF3B1D00221A605A609A6042
:1002FC00114B124A1A60104B4FF480729A600E4BDD
:10030C0001221A730C4B00221A750B4B4FF460220E
:10031C00DA61094B00225A60074B01221A61064828
:10032C0000F00CFC0346002B01D000F0A5FA00BF36
:10033C001037BD4680BD00BF2C00002000240140BA
:10034C0080B586B000AF07F1080300221A605A602E
:10035C009A60DA602B4B9B692A4A43F00403936141
:10036C00284B9B6903F004037B607B68254B9B69DE
:10037C00244A43F008039361224B9B6903F0080362
:10038C003B603B6800228A211F4801F0A6FA00223C
:10039C004FF6FF711D4801F0A0FA0123BB601C4B06
:1003AC00FB6000233B6107F108031946164801F076
:1003BC002BF98A23BB600123FB6000233B610223E2
:1003CC007B6107F1080319460F4801F01DF94FF640
:1003DC00FF73BB600123FB6000233B6102237B6145
:1003EC0007F108031946094801F00EF90022002113
:1003FC00062001F0D2F8062001F0EBF800BF183708
:10040C00BD4680BD0010024000080140000C0140B8
:10041C000000211080B500AF01220121594801F0E4
:10042C005CFA01220221574801F057FA01220421FB
:10043C00544801F052FA01220821524801F04DFAB9
:10044C00012210214F4801F048FA012220214D4889
:10045C0001F043FA012240214A4801F03EFA012200
:10046C008021484801F039FA01224FF48071454847
:10047C0001F033FA01224FF40071424801F02DFAD9
:10048C0001224FF480613F4801F027FA01224FF41A
:10049C0000613C4801F021FA01224FF480513948A7
:1004AC0001F01BFA01224FF40051364801F015FA05
:1004BC0001224FF48041334801F00FFA01224FF42E
:1004CC000041304801F009FA4FF4967000F014FB2B
:1004DC00002201212B4801F000FA002202212948B8
:1004EC0001F0FBF900220421264801F0F6F9002264
:1004FC000821244801F0F1F900221021214801F0D3
:10050C00ECF9002220211F4801F0E7F900224021DC
:10051C001C4801F0E2F9002280211A4801F0DDF9B3
:10052C0000224FF48071174801F0D7F900224FF4E4
:10053C000071144801F0D1F900224FF48061114888
:10054C0001F0CBF900224FF400610E4801F0C5F91F
:10055C0000224FF480510B4801F0BFF900224FF4F8
:10056C000051084801F0B9F900224FF480410548C8
:10057C0001F0B3F900224FF40041024801F0ADF94B
:10058C0000BF80BD000C014080B582B000AF786028
:10059C000B46FB707A680F4B83FB02139910D31731
:1005AC00C81A03469B0003445B00D01AFB7819461B
:1005BC0000F012F87B68074A82FB03129210DB17DB
:1005CC00D31AFA781146184600F086F800BF08379F
:1005DC00BD4680BD6766666680B582B000AF786048
:1005EC000B46FB70FB78582B34D17B6803F001036E
:1005FC00002B14BF01230023DBB21A46012135481E
:10060C0001F06BF97B6803F00203002B14BF01238C
:10061C000023DBB21A4602212E4801F05EF97B68FA
:10062C0003F00403002B14BF01230023DBB21A4692
:10063C000421284801F051F97B6803F00803002BD2
:10064C0014BF01230023DBB21A460821214801F014
:10065C0044F93AE0FB78592B37D17B6803F001035E
:10066C00002B14BF01230023DBB21A464FF4807118
:10067C00184801F032F97B6803F00203002B14BF19
:10068C0001230023DBB21A464FF40071114801F02C
:10069C0024F97B6803F00403002B14BF012300230F
:1006AC00DBB21A464FF480610A4801F016F97B68F8
:1006BC0003F00803002B14BF01230023DBB21A46FE
:1006CC004FF40061034801F008F900BF0837BD463C
:1006DC0080BD00BF000C014080B582B000AF7860D7
:1006EC000B46FB70FB78582B34D17B6803F001036D
:1006FC00002B14BF01230023DBB21A46102135480E
:10070C0001F0EBF87B6803F00203002B14BF01230C
:10071C000023DBB21A4620212E4801F0DEF87B685C
:10072C0003F00403002B14BF01230023DBB21A4691
:10073C004021284801F0D1F87B6803F00803002B16
:10074C0014BF01230023DBB21A468021214801F09B
:10075C00C4F83AE0FB78592B37D17B6803F00103DE
:10076C00002B14BF01230023DBB21A464FF4805137
:10077C00184801F0B2F87B6803F00203002B14BF99
:10078C0001230023DBB21A464FF40051114801F04B
:10079C00A4F87B6803F00403002B14BF012300238F
:1007AC00DBB21A464FF480410A4801F096F87B6898
:1007BC0003F00803002B14BF01230023DBB21A46FD
:1007CC004FF40041034801F088F800BF0837BD46DC
:1007DC0080BD00BF000C014080B582B000AF7860D6
:1007EC00396001220221224801F077F80122082108
:1007FC001F4801F072F84FF4967000F07DF9FFF786
:10080C009FFC1C4800F072FA4FF47A71194800F002
:10081C0047FB184800F04AFC02467B681A601548F2
:10082C0000F012FBFFF7AAFC124800F05FFA4FF43D
:10083C007A71104800F034FB0E4800F037FC024689
:10084C003B681A600B4800F0FFFA002202210848AE
:10085C0001F043F800220821054801F03EF84FF45E
:10086C00967000F049F900BF0837BD4680BD00BF47
:10087C00000801402C00002080B400AF00BFBD4632
:10088C0080BC704780B485B000AF154B9B69144A8F
:10089C0043F001039361124B9B6903F00103BB60AE
:1008AC00BB680F4BDB690E4A43F08053D3610C4B92
:1008BC00DB6903F080537B607B680A4B5B68FB60F1
:1008CC00FB6823F0E063FB60FB6843F08063FB6034
:1008DC00044AFB68536000BF1437BD4680BC7047A8
:1008EC00001002400000014080B588B000AF786075
:1008FC0007F1100300221A605A609A60DA607B6874
:10090C001B68144A934221D1134B9B69124A43F43E
:10091C0000739361104B9B6903F40073FB60FB68DD
:10092C000D4B9B690C4A43F0040393610A4B9B6982
:10093C0003F00403BB60BB6814233B6103237B619E
:10094C0007F110031946054800F05EFE00BF203782
:10095C00BD4680BD0024014000100240000801404B
:10096C0080B400AF00BFBD4680BC704780B400AF00
:10097C00FEE780B400AFFEE780B400AFFEE780B4C2
:10098C0000AFFEE780B400AF00BFBD4680BC70472F
:10099C0080B400AF00BFBD4680BC704780B400AFD0
:1009AC0000BFBD4680BC704780B500AF00F088F832
:1009BC0000BF80BD80B500AF0121074800F076FF75
:1009CC000346002B03D041F2883000F095F801204B
:1009DC0000F09CFF00BF80BD0008014080B400AF58
:1009EC0000BFBD4680BC70470C480D490D4A002322
:1009FC0002E0D458C4500433C4188C42F9D30A4AC8
:100A0C000A4C002301E013600432A242FBD3FFF72F
:100A1C00E5FF01F017FDFFF7CDFB7047000000204C
:100A2C000C000020082500080C00002064000020A9
:100A3C00FEE7000080B500AF084B1B68074A43F087
:100A4C0010031360032000F09DFD002000F008F857
:100A5C00FFF718FF0023184680BD00BF002002409E
:100A6C0080B582B000AF7860124B1A68124B1B78BD
:100A7C0019464FF47A73B3FBF1F3B2FBF3F3184658
:100A8C0000F0B5FD0346002B01D001230EE07B687E
:100A9C000F2B0AD8002279684FF0FF3000F07DFD53
:100AAC00064A7B681360002300E0012318460837D0
:100ABC00BD4680BD0000002008000020040000207E
:100ACC0080B400AF054B1B781A46054B1B681344CA
:100ADC00034A136000BFBD4680BC7047080000206D
:100AEC006000002080B400AF024B1B681846BD4666
:100AFC0080BC70476000002080B584B000AF786087
:100B0C00FFF7F0FFB8607B68FB60FB68B3F1FF3F59
:100B1C0005D0094B1B781A46FB681344FB6000BFD9
:100B2C00FFF7E0FF0246BB68D31AFA689A42F7D87F
:100B3C0000BF1037BD4680BD0800002080B586B0D0
:100B4C0000AF78600023FB7500233B610023BB6082
:100B5C000023FB607B68002B01D10123BEE07B6886
:100B6C009B68002B7B689B6A002B09D17B68002259
:100B7C00DA627B68002283F824207868FFF7B4FEE1
:100B8C00786800F0F1FB0346FB757B689B6A03F009
:100B9C001003002B40F09980FB7D002B40F09580DA
:100BAC007B689B6A23F4885323F0020343F0020210
:100BBC007B689A627B685A687B68DB691A437B683E
:100BCC001B7B5B001343BA681343BB607B689B6859
:100BDC00B3F5807F03D07B689B68012B02D14FF467
:100BEC00807300E000233A6913433B617B681B7DF3
:100BFC00012B19D17B681B7B002B09D17B689B696E
:100C0C00013B5A033B69134343F400633B610BE024
:100C1C007B689B6A43F020027B689A627B68DB6A84
:100C2C0043F001027B68DA627B681B685B6823F423
:100C3C0069417B681B683A690A435A607B681B6888
:100C4C009A68284B13407A681268B9680B43936012
:100C5C007B689B68B3F5807F03D07B689B68012B16
:100C6C0004D17B681B69013B1B05FB607B681B681F
:100C7C00DB6A23F470017B681B68FA680A43DA624A
:100C8C007B681B689A68184B1340BA689A420BD160
:100C9C007B680022DA627B689B6A23F0030343F0D3
:100CAC0001027B689A6218E07B689B6A23F012034E
:100CBC0043F010027B689A627B68DB6A43F00102A6
:100CCC007B68DA620123FB7507E07B689B6A43F063
:100CDC0010027B689A620123FB75FB7D184618375E
:100CEC00BD4680BDFDF7E1FFFE0E1FFF80B584B051
:100CFC0000AF78600023FB737B6893F82430012BE2
:100D0C0001D1022398E07B68012283F824207868C3
:100D1C0000F0D0FA0346FB73FB7B002B40F087807E
:100D2C007B689B6A23F4407323F0010343F48072C5
:100D3C007B689A627B681B68414A934205D1414BA0
:100D4C005B6803F47023002B15D17B689B6A23F43A
:100D5C0080127B689A627B681B685B6803F4806313
:100D6C00002B26D07B689B6A23F4405343F48052BB
:100D7C007B689A621DE07B689B6A43F480127B68F7
:100D8C009A627B681B682F4A934204D07B681B686D
:100D9C002B4A93420DD12B4B5B6803F48063002BE1
:100DAC0007D07B689B6A23F4405343F480527B68E2
:100DBC009A627B689B6A03F48053002B06D07B6895
:100DCC00DB6A23F006027B68DA6202E07B680022B1
:100DDC00DA627B68002283F824207B681B686FF042
:100DEC0002021A607B681B689B6803F46023B3F5EE
:100DFC00602F13D17B681B68114A934205D1114BAC
:100E0C005B6803F47023002B08D17B681B689A681D
:100E1C007B681B6842F4A0029A600CE07B681B683C
:100E2C009A687B681B6842F480129A6003E07B68C6
:100E3C00002283F82420FB7B18461037BD4680BD6A
:100E4C00002801400024014080B584B000AF7860D8
:100E5C000023FB737B6893F82430012B01D1022310
:100E6C001AE07B68012283F82420786800F07CFA71
:100E7C000346FB73FB7B002B09D17B689B6A23F435
:100E8C00885323F0010343F001027B689A627B686C
:100E9C00002283F82420FB7B18461037BD4680BD0A
:100EAC0090B587B000AF7860396000237B61002378
:100EBC00FB6000233B61FFF715FE78617B681B68C4
:100ECC009B6803F48073002B0BD07B689B6A43F008
:100EDC0020027B689A627B68002283F8242001231D
:100EEC00D3E07B681B685B6803F48073002B31D103
:100EFC007B681B68DB6A03F47003002B2AD121E0AA
:100F0C003B68B3F1FF3F1DD03B68002B07D0FFF7C8
:100F1C00E9FD02467B69D31A3A689A4212D27B6881
:100F2C001B681B6803F00203002B0BD17B689B6AC8
:100F3C0043F004027B689A627B68002283F82420C9
:100F4C000323A2E07B681B681B6803F00203002BE1
:100F5C00D6D070E04F4B1C68022001F0B7F9034665
:100F6C00B4FBF3F27B681B6819694B4B0B40002BED
:100F7C0018D17B681B68D968484B0B40002B11D1EA
:100F8C007B681B681969464B0B40002B08D17B68AA
:100F9C001B68D968434B0B40002B01D1142320E074
:100FAC0029231EE07B681B6819693D4B0B40002B05
:100FBC0006D17B681B68D9683A4B0B40002B0DD0CF
:100FCC007B681B681969384B0B40002B08D17B6878
:100FDC001B68D968344B0B40002B01D1542300E023
:100FEC00FC2302FB03F33B6121E03B68B3F1FF3FC1
:100FFC001AD03B68002B07D0FFF774FD02467B69C3
:10100C00D31A3A689A420FD2FB683A699A420BD9C2
:10101C007B689B6A43F004027B689A627B680022BF
:10102C0083F82420032330E0FB680133FB60FB686A
:10103C003A699A42D9D87B681B686FF012021A6021
:10104C007B689B6A43F400727B689A627B681B68BE
:10105C009B6803F46023B3F5602F15D17B681B7B71
:10106C00002B11D17B689B6A23F480727B689A6297
:10107C007B689B6A03F48053002B05D17B689B6AC9
:10108C0043F001027B689A62002318461C37BD4668
:10109C0090BD00BF000000202449922424499200F6
:1010AC0092244912922449004992240080B483B0BE
:1010BC0000AF78607B681B68DB6C18460C37BD464C
:1010CC0080BC704780B485B000AF78603960002375
:1010DC00FB730023BB607B6893F82430012B01D198
:1010EC000223DCE07B68012283F824203B685B68E8
:1010FC00062B1CD87B681B68596B3B685A681346D7
:10110C009B001344053B1F2202FA03F3DB431940F7
:10111C003B6818683B685A6813469B001344053BB0
:10112C0000FA03F27B681B680A435A633CE03B6895
:10113C005B680C2B1CD87B681B68196B3B685A6866
:10114C0013469B001344233B1F2202FA03F3DB4399
:10115C0019403B6818683B685A6813469B00134457
:10116C00233B00FA03F27B681B680A431A631BE0FB
:10117C007B681B68D96A3B685A6813469B0013440A
:10118C00413B1F2202FA03F3DB4319403B6818680A
:10119C003B685A6813469B001344413B00FA03F228
:1011AC007B681B680A43DA623B681B68092B1CD9F5
:1011BC007B681B68D9683B681A6813465B0013444C
:1011CC001E3B072202FA03F3DB4319403B68986885
:1011DC003B681A6813465B0013441E3B00FA03F28B
:1011EC007B681B680A43DA6019E07B681B68196925
:1011FC003B681A6813465B001344072202FA03F398
:10120C00DB4319403B6898683B681A6813465B00DF
:10121C00134400FA03F27B681B680A431A613B68AB
:10122C001B68102B03D03B681B68112B32D17B68D9
:10123C001B681D4A934225D17B681B689B6803F48D
:10124C000003002B26D17B681B689A687B681B689F
:10125C0042F400029A603B681B68102B1AD1134BA6
:10126C001B68134AA2FB03239A0C13469B001344DE
:10127C005B00BB6002E0BB68013BBB60BB68002B42
:10128C00F9D107E07B689B6A43F020027B689A6285
:10129C000123FB737B68002283F82420FB7B184618
:1012AC001437BD4680BC704700240140000000206C
:1012BC0083DE1B4380B584B000AF78600023FB60F5
:1012CC000023BB607B681B689B6803F00103012B48
:1012DC0040D07B681B689A687B681B6842F00102EF
:1012EC009A601F4B1B681F4AA2FB03239B0CBB601D
:1012FC0002E0BB68013BBB60BB68002BF9D1FFF778
:10130C00F1FBF8601FE0FFF7EDFB0246FB68D31A18
:10131C00022B18D97B681B689B6803F00103012B17
:10132C0011D07B689B6A43F010027B689A627B68E1
:10133C00DB6A43F001027B68DA627B68002283F887
:10134C002420012307E07B681B689B6803F00103E2
:10135C00012BD8D1002318461037BD4680BD00BFE5
:10136C000000002083DE1B4380B584B000AF7860A2
:10137C000023FB607B681B689B6803F00103012B57
:10138C002ED17B681B689A687B681B6822F001026F
:10139C009A60FFF7A7FBF8601BE0FFF7A3FB024680
:1013AC00FB68D31A022B14D97B681B689B6803F06B
:1013BC000103012B0DD17B689B6A43F010027B6803
:1013CC009A627B68DB6A43F001027B68DA62012374
:1013DC0007E07B681B689B6803F00103012BDCD0E2
:1013EC00002318461037BD4680BD000080B485B080
:1013FC0000AF78607B6803F00703FB600C4BDB6885
:10140C00BB60BA684FF6FF031340BB60FB681A025F
:10141C00BB68134343F0BF6343F40033BB60044A1F
:10142C00BB68D36000BF1437BD4680BC704700BF9B
:10143C0000ED00E080B400AF044BDB681B0A03F046
:10144C0007031846BD4680BC704700BF00ED00E0A6
:10145C0080B483B000AF0346FB7197F90730002BC3
:10146C000BDBFB7903F01F02064997F907305B0988
:10147C00012000FA02F241F8232000BF0C37BD46D0
:10148C0080BC704700E100E080B483B000AF03463D
:10149C003960FB7197F90730002B0ADB3B68DAB235
:1014AC000C4997F907301201D2B20B4483F8002390
:1014BC000AE03B68DAB20849FB7903F00F03043BFE
:1014CC001201D2B20B441A7600BF0C37BD4680BC59
:1014DC00704700BF00E100E000ED00E080B489B08F
:1014EC0000AFF860B9607A60FB6803F00703FB613A
:1014FC00FB69C3F10703042B28BF0423BB61FB6901
:10150C000433062B02D9FB69033B00E000237B610B
:10151C004FF0FF32BB6902FA03F3DA43BB681A409F
:10152C007B699A404FF0FF317B6901FA03F3D94391
:10153C007B680B40134318462437BD4680BC70476C
:10154C0080B582B000AF78607B68013BB3F1807FDF
:10155C0001D301230FE00A4A7B68013B53600F2142
:10156C004FF0FF30FFF790FF054B00229A60044BC1
:10157C0007221A60002318460837BD4680BD00BFFD
:10158C0010E000E080B582B000AF78607868FFF7BB
:10159C002DFF00BF0837BD4680BD80B586B000AFBB
:1015AC000346B9607A60FB7300237B61FFF742FF4F
:1015BC0078617A68B9687869FFF790FF024697F905
:1015CC000F3011461846FFF75FFF00BF1837BD46B6
:1015DC0080BD80B582B000AF0346FB7197F9073030
:1015EC001846FFF735FF00BF0837BD4680BD80B5F4
:1015FC0082B000AF78607868FFF7A2FF0346184608
:10160C000837BD4680BD000080B48BB000AF786059
:10161C00396000237B6200233B6221E101227B6A5B
:10162C0002FA03F3FB613B681B68FA691340BB6168
:10163C00BA69FB699A4240F010813B685B68122BD7
:10164C0034D0122B0DD8022B2BD0022B04D8002B0C
:10165C0031D0012B1CD048E0032B43D0112B1BD0D5
:10166C0043E0864A934226D0844A934206D8844A61
:10167C00934220D0834A93421DD036E0824A934253
:10168C0019D0824A934216D0814A934213D02CE04F
:10169C003B68DB683B6228E03B68DB6804333B62F9
:1016AC0023E03B68DB6808333B621EE03B68DB6889
:1016BC000C333B6219E03B689B68002B02D104237E
:1016CC003B6212E03B689B68012B05D108233B620F
:1016DC007B68FA691A6108E008233B627B68FA6947
:1016EC005A6102E000233B6200BFBB69FF2B01D8AB
:1016FC007B6801E07B6804337B61BB69FF2B02D8FC
:10170C007B6A9B0002E07B6A083B9B003B617B6928
:10171C001A680F213B6901FA03F3DB431A40396A5B
:10172C003B6901FA03F31A437B691A603B685B68F7
:10173C0003F08053002B00F09080564B9B69554A68
:10174C0043F001039361534B9B6903F00103BB60AE
:10175C00BB68514A7B6A9B08023352F82330FB600A
:10176C007B6A03F003039B000F2202FA03F3DB43B3
:10177C00FA681340FB607B68484A93420DD07B6843
:10178C00474A934207D07B68464A934201D10223D1
:10179C0004E0032302E0012300E000237A6A02F054
:1017AC00030292009340FA681343FB603A497B6A48
:1017BC009B080233FA6841F823203B685B6803F40A
:1017CC008033002B06D0384B1A683749BB6913435A
:1017DC000B6006E0344B1A68BB69DB43324913409B
:1017EC000B603B685B6803F40033002B06D02E4B78
:1017FC005A682D49BB6913434B6006E02A4B5A6863
:10180C00BB69DB43284913404B603B685B6803F4BE
:10181C008013002B06D0244B9A682349BB691343D1
:10182C008B6006E0204B9A68BB69DB431E49134072
:10183C008B603B685B6803F40013002B06D01A4BDB
:10184C00DA681949BB691343CB6006E0164BDA68BA
:10185C00BB69DB4314491340CB607B6A01337B6269
:10186C003B681A687B6A22FA03F3002B7FF4D6AE2E
:10187C0000BF2C37BD4680BC704700BF0000211054
:10188C000000111000001210000031100000321086
:10189C00000022100010024000000140000801402E
:1018AC00000C0140001001400004014080B485B0E0
:1018BC0000AF78600B467B807B689A687B8813400E
:1018CC00002B02D00123FB7301E00023FB73FB7B95
:1018DC0018461437BD4680BC704780B483B000AF47
:1018EC0078600B467B8013467B707B78002B03D093
:1018FC007A887B681A6103E07B881A047B681A611A
:10190C0000BF0C37BD4680BC7047000080B582B06C
:10191C0000AF0346FB80084B5A69FB881340002B31
:10192C0006D0054AFB885361FB88184600F006F880
:10193C0000BF0837BD4680BD0004014080B483B0B1
:10194C0000AF0346FB8000BF0C37BD4680BC704720
:10195C0080B586B000AF78607B68002B01D1012385
:10196C006CE27B681B6803F00103002B00F087809E
:10197C00924B5B6803F00C03042B0CD08F4B5B6811
:10198C0003F00C03082B12D18C4B5B6803F48033EF
:10199C00B3F5803F0BD1894B1B6803F40033002B4C
:1019AC006CD07B685B68002B68D1012346E27B68B6
:1019BC005B68B3F5803F06D1804B1B687F4A43F4CC
:1019CC00803313602EE07B685B68002B0CD17B4B63
:1019DC001B687A4A23F480331360784B1B68774A70
:1019EC0023F4802313601DE07B685B68B3F5A02FA4
:1019FC000CD1724B1B68714A43F4802313606F4BFC
:101A0C001B686E4A43F4803313600BE06B4B1B680E
:101A1C006A4A23F480331360684B1B68674A23F4CB
:101A2C00802313607B685B68002B13D0FFF75AF898
:101A3C00386108E0FFF756F802463B69D31A642B6D
:101A4C0001D90323FAE15D4B1B6803F40033002B2F
:101A5C00F0D014E0FFF746F8386108E0FFF742F8E1
:101A6C0002463B69D31A642B01D90323E6E1534B9D
:101A7C001B6803F40033002BF0D100E000BF7B683F
:101A8C001B6803F00203002B63D04C4B5B6803F024
:101A9C000C03002B0BD0494B5B6803F00C03082B99
:101AAC001CD1464B5B6803F48033002B16D1434B9F
:101ABC001B6803F00203002B05D07B681B69012B0C
:101ACC0001D00123BAE13D4B1B6823F0F8027B687F
:101ADC005B69DB00394913430B603AE07B681B6997
:101AEC00002B20D0364B01221A60FEF7FBFF386129
:101AFC0008E0FEF7F7FF02463B69D31A022B01D927
:101B0C0003239BE12D4B1B6803F00203002BF0D049
:101B1C002A4B1B6823F0F8027B685B69DB002749C2
:101B2C0013430B6015E0264B00221A60FEF7DAFF18
:101B3C00386108E0FEF7D6FF02463B69D31A022B48
:101B4C0001D903237AE11D4B1B6803F00203002B20
:101B5C00F0D17B681B6803F00803002B3AD07B683C
:101B6C009B69002B19D0174B01221A60FEF7BAFFA4
:101B7C00386108E0FEF7B6FF02463B69D31A022B28
:101B8C0001D903235AE10D4B5B6A03F00203002BCE
:101B9C00F0D0012000F0C6FA1CE00A4B00221A60BB
:101BAC00FEF7A0FF38610FE0FEF79CFF02463B6991
:101BBC00D31A022B08D9032340E100BF00100240C6
:101BCC0000004242800442429E4B5B6A03F00203D7
:101BDC00002BE9D17B681B6803F00403002B00F099
:101BEC00A6800023FB75974BDB6903F08053002B19
:101BFC000DD1944BDB69934A43F08053D361914BE5
:101C0C00DB6903F08053BB60BB680123FB758E4B13
:101C1C001B6803F48073002B18D18B4B1B688A4A0A
:101C2C0043F480731360FEF75DFF386108E0FEF744
:101C3C0059FF02463B69D31A642B01D90323FDE0FB
:101C4C00814B1B6803F48073002BF0D07B68DB683E
:101C5C00012B06D17B4B1B6A7A4A43F001031362BA
:101C6C002DE07B68DB68002B0CD1764B1B6A754A28
:101C7C0023F001031362734B1B6A724A23F00403B3
:101C8C0013621CE07B68DB68052B0CD16D4B1B6A67
:101C9C006C4A43F0040313626A4B1B6A694A43F0B3
:101CAC00010313620BE0674B1B6A664A23F00103C6
:101CBC001362644B1B6A634A23F0040313627B6850
:101CCC00DB68002B15D0FEF70DFF38610AE0FEF73C
:101CDC0009FF02463B69D31A41F28832934201D97B
:101CEC000323ABE0574B1B6A03F00203002BEED02F
:101CFC0014E0FEF7F7FE38610AE0FEF7F3FE024649
:101D0C003B69D31A41F28832934201D9032395E0FF
:101D1C004C4B1B6A03F00203002BEED1FB7D012B15
:101D2C0005D1484BDB69474A23F08053D3617B686C
:101D3C00DB69002B00F08180424B5B6803F00C03E5
:101D4C00082B61D07B68DB69022B46D13F4B00220C
:101D5C001A60FEF7C7FE386108E0FEF7C3FE0246C4
:101D6C003B69D31A022B01D9032367E0354B1B685F
:101D7C0003F00073002BF0D17B681B6AB3F5803F36
:101D8C0008D1304B5B6823F400327B689B682D498B
:101D9C0013434B602B4B5B6823F474127B68196AFA
:101DAC007B685B6A0B43274913434B60274B01222B
:101DBC001A60FEF797FE386108E0FEF793FE0246C4
:101DCC003B69D31A022B01D9032337E01D4B1B6847
:101DDC0003F00073002BF0D02FE01C4B00221A6094
:101DEC00FEF780FE386108E0FEF77CFE02463B6998
:101DFC00D31A022B01D9032320E0124B1B6803F0EA
:101E0C000073002BF0D118E07B68DB69012B01D14A
:101E1C00012313E00B4B5B68FB60FB6803F480321F
:101E2C007B681B6A9A4206D1FB6803F470127B68CC
:101E3C005B6A9A4201D0012300E000231846183750
:101E4C00BD4680BD00100240007000406000424260
:101E5C0080B584B000AF786039607B68002B01D10D
:101E6C000123D0E06A4B1B6803F007033A689A42DF
:101E7C0010D9674B1B6823F0070265493B68134375
:101E8C000B60634B1B6803F007033A689A4201D05E
:101E9C000123B8E07B681B6803F00203002B20D001
:101EAC007B681B6803F00403002B05D0594B5B685F
:101EBC00584A43F4E06353607B681B6803F00803E3
:101ECC00002B05D0534B5B68524A43F4605353606C
:101EDC00504B5B6823F0F0027B689B684D491343C1
:101EEC004B607B681B6803F00103002B40D07B68C0
:101EFC005B68012B07D1474B1B6803F40033002BA5
:101F0C0015D101237FE07B685B68022B07D1414B25
:101F1C001B6803F00073002B09D1012373E03D4BC8
:101F2C001B6803F00203002B01D101236BE0394B3A
:101F3C005B6823F003027B685B68364913434B6094
:101F4C00FEF7D0FDF8600AE0FEF7CCFD0246FB6818
:101F5C00D31A41F28832934201D9032353E02D4B1B
:101F6C005B6803F00C027B685B689B009A42EBD1C8
:101F7C00274B1B6803F007033A689A4210D2244B94
:101F8C001B6823F0070222493B6813430B60204B6C
:101F9C001B6803F007033A689A4201D0012332E030
:101FAC007B681B6803F00403002B08D0194B5B689B
:101FBC0023F4E0627B68DB68164913434B607B6853
:101FCC001B6803F00803002B09D0124B5B6823F449
:101FDC0060527B681B69DB000E4913434B6000F0B9
:101FEC0021F801460B4B5B681B0903F00F030A4AEF
:101FFC00D35C21FA03F3094A1360094B1B6818469A
:10200C00FEF72EFD002318461037BD4680BD00BFDD
:10201C000020024000100240E824000800000020CC
:10202C000400002090B48AB000AF2A4B3C1D0FCBAB
:10203C0084E80F00284B1B883B800023FB610023A6
:10204C00BB6100237B6200237B6100233B62234B3B
:10205C005B68FB61FB6903F00C03042B02D0082BBB
:10206C0003D02DE01E4B3B622DE0FB699B0C03F073
:10207C000F0307F12802134413F8243C7B61FB691E
:10208C0003F48033002B13D0144B5B685B0C03F010
:10209C00010307F12802134413F8283CBB617B6948
:1020AC000F4A02FB03F2BB69B2FBF3F37B6204E061
:1020BC007B690C4A02FB03F37B627B6A3B6202E0A6
:1020CC00074B3B6200BF3B6A18462837BD4690BCA5
:1020DC00704700BFC0240008D02400080010024044
:1020EC0000127A0000093D0080B400AF024B1B685F
:1020FC001846BD4680BC70470000002080B500AF7C
:10210C00FFF7F2FF0146054B5B68DB0A03F00703A0
:10211C00034AD35C21FA03F3184680BD0010024039
:10212C00F824000880B485B000AF78600A4B1B68B7
:10213C000A4AA2FB03235B0A7A6802FB03F3FB60E7
:10214C0000BFFB685A1EFA60002BF9D100BF143790
:10215C00BD4680BC704700BF00000020D34D62100C
:10216C0080B586B000AF786000233B610023FB6034
:10217C007B681B6803F00103002B7DD00023FB75EB
:10218C004F4BDB6903F08053002B0DD14C4BDB69BB
:10219C004B4A43F08053D361494BDB6903F08053C6
:1021AC00BB60BB680123FB75464B1B6803F4807353
:1021BC00002B18D1434B1B68424A43F480731360C5
:1021CC00FEF790FC386108E0FEF78CFC02463B6998
:1021DC00D31A642B01D903236DE03A4B1B6803F42B
:1021EC008073002BF0D0364B1B6A03F44073FB60FA
:1021FC00FB68002B2ED07B685B6803F44073FA6895
:10220C009A4227D02E4B1B6A23F44073FB602E4B53
:10221C0001221A602C4B00221A60294AFB681362B7
:10222C00FB6803F00103002B14D0FEF75BFC386154
:10223C000AE0FEF757FC02463B69D31A41F288329A
:10224C00934201D9032336E01D4B1B6A03F00203B2
:10225C00002BEED01A4B1B6A23F440727B685B6830
:10226C00174913430B62FB7D012B05D1144BDB6922
:10227C00134A23F08053D3617B681B6803F002037D
:10228C00002B08D00E4B5B6823F440427B689B68A4
:10229C000B4913434B607B681B6803F01003002B46
:1022AC0008D0074B5B6823F480027B68DB68044929
:1022BC0013434B60002318461837BD4680BD00BF42
:1022CC0000100240007000404004424290B58DB0B6
:1022DC0000AF7860554B07F10C040FCB84E80F006E
:1022EC00534B1B883B8100237B620023FB62002342
:1022FC003B620023FB610023BB627B68022B7FD017
:10230C00102B02D0012B48D08BE04A4B5B68FB6151
:10231C00484B1B6803F08073002B7FD0FB699B0C30
:10232C0003F00F0307F13002134413F8243C3B6213
:10233C00FB6903F48033002B18D03E4B5B685B0CBD
:10234C0003F0010307F13002134413F8283C7B62BD
:10235C00FB6903F48033002B0DD0374A7B6AB2FB48
:10236C00F3F23B6A02FB03F3FB6204E03B6A334A81
:10237C0002FB03F3FB622F4B5B6803F48003B3F5A2
:10238C00800F02D1FB6ABB6248E0FB6A5B002C4AFF
:10239C00A2FB03235B08BB6240E0264B1B6AFB617C
:1023AC00FB6903F44073B3F5807F08D1FB6903F03C
:1023BC000203002B03D04FF40043BB621FE0FB6908
:1023CC0003F44073B3F5007F09D11A4B5B6A03F039
:1023DC000203002B03D049F64043BB620FE0FB69BC
:1023EC0003F44073B3F5407F1AD1124B1B6803F40E
:1023FC000033002B14D04FF22443BB6210E00FE0EB
:10240C00FFF77CFE02460B4B5B689B0B03F0030350
:10241C0001335B00B2FBF3F3BB6202E000BF00E0F0
:10242C0000BFBB6A18463437BD4690BDD4240008A3
:10243C00E42400080010024000127A0000093D005C
:10244C00ABAAAAAA70B500250C4E0D4CA41BA41067
:10245C00A54209D100F022F800250A4E0A4CA41B13
:10246C00A410A54205D170BD56F82530984701350A
:10247C00EEE756F8253098470135F2E700250008BD
:10248C000025000800250008042500080346024426
:10249C00934200D1704703F8011BF9E7F8B500BF70
:1024AC00F8BC08BC9E467047F8B500BFF8BC08BC29
:0424BC009E46704781
:1024C00002030405060708090A0B0C0D0E0F101075
:1024D0000102000002030405060708090A0B0C0D9F
:1024E0000E0F1010010200000000000000000000AC
:1024F00001020304060708090000000001020304AA
:04250000310100089D
:042504000D010008BD
:0C2508000024F40010000000010000009E
:04000005080009F5F1
:00000001FF
